S01900004672657175656E63794465746563746F722E737265631F
S11300000C9434000C94FE040C9424050C945100BC
S11300100C9451000C9451000C9451000C94510018
S11300200C9451000C9451000C9451000C94510008
S11300300C9451000C9451000C944A050C945100FA
S11300400C9451000C9451000C9451000C945100E8
S11300500C9451000C94D8040C9451000C9451004D
S11300600C9451000C94510011241FBECFEFD8E022
S1130070DEBFCDBF11E0A0E0B1E0ECE7F3E102C0E8
S113008005900D92A839B107D9F722E0A8E9B1E0AB
S113009001C01D92AE34B207E1F70E9489040C94AA
S11300A0BC090C9400008DB383608DBB8FE08093FA
S11300B069000895CF92DF92EF92FF92CF93DF937E
S11300C0EC010E947D056B017C0188819981AA81E4
S11300D0BB81A7019601281B390B4A0B5B0B293CFA
S11300E031054105510518F0EC81FD810995C8825F
S11300F0D982EA82FB82DF91CF91FF90EF90DF906B
S1130100CF900895EAE7F0E0108210927B00ACE70C
S1130110B0E08C9180648C938C9180628C9380810C
S11301208560808380818062808380818860808311
S1130130808180688083808180648083089581E0E9
S113014020912D0290910001921708F080E008950B
S11301506091290270912A0280E090E00E94440696
S11301609B01AC0160E07EE386E197E40E949C057C
S11301700895CF93DF939091A1019F3708F0B9C000
S11301808F3708F4B6C0282F30E0291B310930938B
S1130190280220932702E0919C01F0919D01409157
S11301A0030150E0D901AE1BBF0BBD0122F4662749
S11301B077276A1B7B0B641775070CF07BC0909143
S11301C09E01692F70E0660F771FFB01E25DFD4F12
S11301D031832083C0919F01D091A001FB01ED5E8A
S11301E0FD4FD183C0831092A00110929F01911101
S11301F006C010929B0191E090939E017AC0609199
S11302001302709114026C1B7D0BFB01FF2324F479
S1130210EE27FF27E61BF70B6091010170910201A5
S1130220E617F707C4F560912E0270912F02621B46
S1130230730BFB01FF2324F4EE27FF27E61BF70BC8
S1130240E417F50744F5E3E1F2E09150A92FB0E09B
S1130250AA0FBB1FAB5EBD4F40E050E061917191AE
S1130260460F571FEA17FB07C9F750932C02409318
S11302702B0250932A0240932902D0931402C09374
S1130280130230932F0220932E0291E090939E014B
S113029010929B012EC09F5F9A3018F490939E0198
S11302A028C010929E0110929B0110929D01109201
S11302B09C011FC0E217F3076CF430939D01209357
S11302C09C011092A00110929F0110929B01109228
S11302D09E010FC090919B019F5F90939B019A3068
S11302E040F010929E0110929B0110929D01109279
S11302F09C01811103C091E09093A20120919F0180
S11303003091A0012F5F3F4F3093A00120939F01B4
S11303102091990130919A012F5F3F4F30939A01B8
S1130320209399014FE750E0481B5109BA0122F488
S113033066277727641B750B4091980150E0461798
S1130340570714F460939801283E334051F41092F7
S11303509A01109299019091980190932D02109214
S113036098018093A101DF91CF910895672B09F043
S113037073C08A30910511F4289808958B30910543
S113038011F4299808958C30910511F42A98089550
S11303908D30910511F42B9808958E30910511F448
S11303A02C9808958F30910511F42D98089580317B
S11303B0910511F42E9808958131910511F42F9827
S11303C008958431910511F440980895853191057B
S11303D011F4419808958631910511F442980895D5
S11303E08731910511F4439808958831910511F4EA
S11303F0449808958931910511F4459808958A31F6
S1130400910511F4469808958E31910511F4589888
S113041008958F31910511F459980895803291050A
S113042011F45A9808958132910511F45B98089556
S11304308232910511F45C9808958332910511F488
S11304405D9808958432910511F45E980895859716
S113045009F073C05F9808958A30910511F4289AC1
S113046008958B30910511F4299A08958C309105E3
S113047011F42A9A08958D30910511F42B9A089558
S11304808E30910511F42C9A08958F30910511F452
S11304902D9A08958031910511F42E9A0895813191
S11304A0910511F42F9A08958431910511F4409A1D
S11304B008958531910511F4419A08958631910585
S11304C011F4429A08958731910511F4439A0895DD
S11304D08831910511F4449A08958931910511F4F4
S11304E0459A08958A31910511F4469A08958E31FA
S11304F0910511F4589A08958F31910511F4599A80
S113050008958032910511F45A9A08958132910523
S113051011F45B9A08958232910511F45C9A08955E
S11305208332910511F45D9A08958432910511F492
S11305305E9A0895859709F45F9A0895CF93C82F1A
S113054080FF07C061E070E083E290E00E94B601A2
S113055006C060E070E083E290E00E94B601C1FF53
S113056007C061E070E084E290E00E94B60106C03A
S113057060E070E084E290E00E94B601C2FF07C030
S113058061E070E085E290E00E94B60106C060E0A0
S113059070E085E290E00E94B601C3FF07C061E00D
S11305A070E08AE090E00E94B60106C060E070E06E
S11305B08AE090E00E94B601C4FF07C061E070E0E9
S11305C08BE090E00E94B60106C060E070E08BE032
S11305D090E00E94B601C5FF07C061E070E08CE0C6
S11305E090E00E94B60106C060E070E08CE090E00C
S11305F00E94B601C6FF07C061E070E08DE090E0A4
S11306000E94B60106C060E070E08DE090E00E94B8
S1130610B601CC233CF461E070E08FE090E00E94EE
S1130620B60106C060E070E08FE090E00E94B60181
S1130630CF910895CF93C82F60E070E08FE190E0F0
S11306400E94B6018C2F0E949E0261E070E082E25B
S113065090E00E94B6018FE99FE00197F1F700C096
S1130660000060E070E082E290E00E94B6018FE951
S11306709FE00197F1F700C00000CF91089581E059
S11306800E941A03089560E070E08FE190E00E94F8
S1130690B60160E070E082E290E00E94B6012FEFC4
S11306A089EF90E0215080409040E1F700C00000C5
S11306B080E30E941A038FE19EE40197F1F700C0E2
S11306C0000080E30E941A038FE99FE00197F1F78D
S11306D000C0000080E30E941A038FE39CE90197A5
S11306E0F1F700C0000088E30E941A038CE00E9426
S11306F01A0381E00E941A0386E00E941A030895F7
S1130700CF93C82F61E070E08FE190E00E94B601C2
S11307108C2F0E949E0261E070E082E290E00E94D1
S1130720B6018FE99FE00197F1F700C0000060E097
S113073070E082E290E00E94B6018FE99FE00197A9
S1130740F1F700C00000CF910895CF93DF93EC013F
S11307508881882331F021960E9480038991811138
S1130760FBCFDF91CF91089581E1E9E5F1E0A3EAC0
S1130770B1E001900D928A95E1F781E1E8E4F1E0BE
S1130780A4EBB1E001900D928A95E1F781E1E7E3F2
S1130790F1E0A5ECB1E001900D928A95E1F781E1D9
S11307A0E6E2F1E0A6EDB1E001900D928A95E1F761
S11307B081E1E5E1F1E0A7EEB1E001900D928A95C7
S11307C0E1F781E1E4E0F1E0A8EFB1E001900D92FE
S11307D08A95E1F708951F93CF93DF93EC01888105
S11307E09981863091051CF01982188206C09923DC
S11307F024F485E090E09983888380E80E941A03BA
S11308008AE691E00E94A50380E80E941A032881E9
S1130810398111E1129FC001139F900D11248D5550
S11308209E4F0E94A50389E80E941A0328813981FA
S1130830129FC001139F900D112484559E4F0E9456
S1130840A503DF91CF911F9108958FEF84B98AB9E1
S11308500E9443030E94B4030E943F0380E090E09F
S11308600E94EB0380EC0E941A038BE791E00E9444
S1130870A50308950F931F93CF93DF9300D000D067
S1130880CDB7DEB7182F092F89EC0E941A0383E72E
S113089091E00E94A5030F931F9381E891E09F9339
S11308A08F938E010F5F1F4F1F930F930E94D206E9
S11308B089EC0E941A03C8010E94A5030F900F90AF
S11308C00F900F900F900F900F900F900F900F902C
S11308D0DF91CF911F910F9108958091090290911A
S11308E00A02019790930A028093090289E092E038
S11308F00E94EB0308958091090290910A020196E7
S113090090930A028093090289E092E00E94EB032B
S11309100895CF93DF93CDB7DEB7C055D1090FB695
S1130920F894DEBF0FBECDBF0E946E050E94250461
S11309300E9482000E9453008BE794E09093470248
S1130940809346028DE694E090934D0280934C028E
S113095078940F2EF4E8EF2EF1E0FF2EF02DCE0167
S113096001966C010E949F008823C1F00E94A80098
S11309700E940E06062F172F7F936F93FF92EF921C
S1130980DF92CF920E94D206802F912F0E943A04C8
S11309900F900F900F900F900F900F909FEF29E6FC
S11309A088E1915020408040E1F700C00000DACF98
S11309B01F920F920FB60F9211242F933F934F93D0
S11309C05F936F937F938F939F93AF93BF93EF93B3
S11309D0FF93809179000E94B900FF91EF91BF913C
S11309E0AF919F918F917F916F915F914F913F91C3
S11309F02F910F900FBE0F901F9018951F920F927A
S1130A000FB60F9211242F933F934F935F936F93DD
S1130A107F938F939F93AF93BF93EF93FF9382E45E
S1130A2092E00E945A00FF91EF91BF91AF919F9184
S1130A308F917F916F915F914F913F912F910F9083
S1130A400FBE0F901F9018951F920F920FB60F9222
S1130A5011242F933F934F935F936F937F938F93BF
S1130A609F93AF93BF93EF93FF9388E492E00E9428
S1130A705A00FF91EF91BF91AF919F918F917F9118
S1130A806F915F914F913F912F910F900FBE0F90F7
S1130A901F9018951F920F920FB60F9211242F9347
S1130AA03F934F935F936F937F938F939F93AF93F2
S1130AB0BF93EF93FF930E948805FF91EF91BF913D
S1130AC0AF919F918F917F916F915F914F913F91E2
S1130AD02F910F900FBE0F901F90189584B58260D0
S1130AE084BD16BC89EF87BD85B5836085BDEEE600
S1130AF0F0E08081826080830895F89460910B0215
S1130B0070910C0280910D0290910E0278940895D8
S1130B1080910B0290910C02A0910D02B0910E02F3
S1130B200196A11DB11D80930B0290930C02A0931A
S1130B300D02B0930E0208950E94B0050C9498061D
S1130B400E94910658F00E948A0640F029F45F3F03
S1130B5029F00C94810651110C94CC060C94870650
S1130B600E94A90668F39923B1F3552391F3951BC9
S1130B70550BBB27AA2762177307840738F09F5FBA
S1130B805F4F220F331F441FAA1FA9F335D00E2E27
S1130B903AF0E0E832D091505040E695001CCAF794
S1130BA02BD0FE2F29D0660F771F881FBB1F261757
S1130BB037074807AB07B0E809F0BB0B802DBF012E
S1130BC0FF2793585F4F3AF09E3F510578F00C94FD
S1130BD081060C94CC065F3FE4F3983ED4F38695EB
S1130BE077956795B795F7959F5FC9F7880F911D1E
S1130BF09695879597F90895E1E0660F771F881F0A
S1130C00BB1F621773078407BA0720F0621B730BBC
S1130C10840BBA0BEE1F88F7E09508950E94150621
S1130C206894B1110C94CC0608950E94B10688F022
S1130C309F5798F0B92F9927B751B0F0E1F0660F9C
S1130C40771F881F991F1AF0BA95C9F714C0B130DD
S1130C5091F00E94CB06B1E008950C94CB06672F67
S1130C60782F8827B85F39F0B93FCCF3869577950C
S1130C706795B395D9F73EF49095809570956195F5
S1130C807F4F8F4F9F4F0895E89409C097FB3EF420
S1130C9090958095709561957F4F8F4F9F4F9923C5
S1130CA0A9F0F92F96E9BB279395F6958795779543
S1130CB06795B795F111F8CFFAF4BB0F11F460FF03
S1130CC01BC06F5F7F4F8F4F9F4F16C0882311F05B
S1130CD096E911C0772321F09EE8872F762F05C06F
S1130CE0662371F096E8862F70E060E02AF09A950A
S1130CF0660F771F881FDAF7880F9695879597F9FF
S1130D00089597F99F6780E870E060E008959FEF89
S1130D1080EC089500240A9416161706180609068E
S1130D20089500240A94121613061406050608955D
S1130D30092E0394000C11F4882352F0BB0F40F4E5
S1130D40BF2B11F460FF04C06F5F7F4F8F4F9F4F25
S1130D50089557FD9058440F551F59F05F3F71F0A7
S1130D604795880F97FB991F61F09F3F79F087950E
S1130D700895121613061406551FF2CF4695F1DF97
S1130D8008C0161617061806991FF1CF8695710527
S1130D90610508940895E894BB2766277727CB015B
S1130DA097F90895AEE0B0E0E8EDF6E00C9493090D
S1130DB00D891E8986E08C831A8309838FEF9FE750
S1130DC09E838D83AE01475E5F4F6F89788DCE0120
S1130DD001960E94F406EF81F885E00FF11F10825E
S1130DE02E96E4E00C94AF09ABE0B0E0EAEFF6E055
S1130DF00C9485096C017B018A01FC01178216821F
S1130E00838181FFCCC1CE0101963C01F60193811F
S1130E10F70193FD859193FF81917F01882309F464
S1130E20BAC1853239F493FD859193FF81917F0195
S1130E30853229F4B60190E00E94EB08E7CF912CAB
S1130E40212C312CFFE1F315D8F08B3279F038F4F2
S1130E50803279F08332A1F4232D20611DC08D32BC
S1130E6061F0803369F4232D216016C0832D8260E4
S1130E70382EE32DE4603E2E2AC0F32DF8601DC009
S1130E8037FC2DC020ED280F2A3040F08E32B9F403
S1130E9036FC81C1232D2064322E19C036FE06C0D3
S1130EA08AE0989E200D1124922E11C0EAE02E9E15
S1130EB0200D1124222EF32DF0623F2E08C08C3613
S1130EC021F4832D8068382E02C0883641F4F7015E
S1130ED093FD859193FF81917F018111B3CF982F69
S1130EE09F7D9554933028F40C5F1F4F9FE39983A3
S1130EF00DC0833631F0833771F0833509F059C062
S1130F0021C0F801808189830E5F1F4F8824839458
S1130F10912C530113C02801F2E04F0E511CF8012B
S1130F20A080B18036FE03C0692D70E002C06FEF6F
S1130F307FEFC5010E94E0084C018201F32DFF7789
S1130F403F2E16C0280122E0420E511CF801A08059
S1130F50B18036FE03C0692D70E002C06FEF7FEFF1
S1130F60C5010E94D5084C01F32DF0683F2E820183
S1130F7033FC1BC0822D90E088169906B0F4B601AC
S1130F8080E290E00E94EB082A94F4CFF50137FC4C
S1130F90859137FE81915F01B60190E00E94EB08D4
S1130FA021102A9421E0821A91088114910471F786
S1130FB0E8C0843611F0893641F5F80137FE07C0E0
S1130FC060817181828193810C5F1F4F08C06081B1
S1130FD07181072E000C880B990B0E5F1F4FF32DA8
S1130FE0FF763F2E97FF09C0909580957095619587
S1130FF07F4F8F4F9F4FF0683F2E2AE030E0A301D0
S11310000E942709882E861845C0853731F4232D80
S11310102F7EB22E2AE030E025C0932D997FB92E81
S11310208F36C1F018F4883579F0B5C0803719F0DF
S1131030883721F0B0C0E92FE061BE2EB4FE0DC0A8
S1131040FB2DF460BF2E09C034FE0AC0292F266090
S1131050B22E06C028E030E005C020E130E002C036
S113106020E132E0F801B7FE07C06081718182811E
S113107093810C5F1F4F06C06081718180E090E016
S11310800E5F1F4FA3010E942709882E8618FB2D8F
S1131090FF773F2E36FE0DC0232D2E7FA22E8914FE
S11310A058F434FE0BC032FC09C0832D8E7EA82E6A
S11310B005C0B82CA32C03C0B82C01C0B92CA4FEC5
S11310C00FC0FE01E80DF11D8081803321F49A2DBB
S11310D0997EA92E09C0A2FE06C0B394B39404C09D
S11310E08A2D867809F0B394A3FC11C0A0FE06C033
S11310F0B21488F4280C922C9B180EC0B21460F41D
S1131100B60180E290E00E94EB08B394F7CFB214EA
S113111018F42B1802C0982C212CA4FE10C0B60180
S113112080E390E00E94EB08A2FE17C0A1FC03C07C
S113113088E790E002C088E590E0B6010CC08A2DF3
S1131140867859F0A1FE02C08BE201C080E2A7FCC0
S11311508DE2B60190E00E94EB08891438F4B601E0
S113116080E390E00E94EB089A94F7CF8A94F3010D
S1131170E80DF11D8081B60190E00E94EB0881101A
S1131180F5CF222009F442CEB60180E290E00E941D
S1131190EB082A94F6CFF6018681978102C08FEF7F
S11311A09FEF2B96E2E10C94A109FC01059061509C
S11311B070400110D8F7809590958E0F9F1F089569
S11311C0FC016150704001900110D8F78095909512
S11311D08E0F9F1F08950F931F93CF93DF93FB01EF
S11311E0238121FD03C08FEF9FEF2CC022FF16C087
S11311F046815781248135814217530744F4A081E5
S1131200B1819D012F5F3F4F318320838C932681D1
S113121037812F5F3F4F3783268314C08B01EC0146
S1131220FB010084F185E02D0995892BE1F6D801B5
S113123016968D919C911797019617969C938E9371
S11312401697CE01DF91CF911F910F910895FA0166
S1131250AA27283051F1203181F1E8946F936E7FF1
S11312606E5F7F4F8F4F9F4FAF4FB1E03ED0B4E0E2
S11312703CD0670F781F891F9A1FA11D680F791F23
S11312808A1F911DA11D6A0F711D811D911DA11D34
S113129020D009F468943F912AE0269F1124301944
S11312A0305D3193DEF6CF010895462F4770405DDF
S11312B04193B3E00FD0C9F7F6CF462F4F70405D8E
S11312C04A3318F0495D31FD4052419302D0A9F7E9
S11312D0EACFB4E0A6959795879577956795BA95E3
S11312E0C9F700976105710508959B01AC010A2EA9
S11312F006945795479537952795BA95C9F7620F80
S1131300731F841F951FA01D08952F923F924F9223
S11313105F926F927F928F929F92AF92BF92CF9281
S1131320DF92EF92FF920F931F93CF93DF93CDB78A
S1131330DEB7CA1BDB0B0FB6F894DEBF0FBECDBF02
S113134009942A88398848885F846E847D848C84D3
S11313509B84AA84B984C884DF80EE80FD800C81DC
S11313601B81AA81B981CE0FD11D0FB6F894DEBFBF
S10F13700FBECDBFED010895F894FFCF2F
S113137C1E0A000353545220364500000038322E06
S113138C34310000005354522035410000003131F7
S113139C302E3030000053545220344400000031BD
S11313AC34362E3833000053545220334700000097
S11313BC3139362E30300000535452203242000062
S11313CC003234362E393400005354522031450047
S11313DC00003332392E3633000020202020202008
S11313EC2020202020202020202000467265713AE5
S11313FC002564004672657175656E6379203D2025
S10B140C256420487A0A00005F
S9030000FC
